S011000069725F73656E736F722E737265633F
S113000045C000004BC0000049C0000047C00000CC
S113001045C0000043C0000041C000003FC00000D4
S11300203DC000003BC0000039C0000037C00000E4
S113003035C0000033C0000031C000002FC00000F4
S11300402DC000002BC0000029C0000027C0000004
S113005025C0000023C0000021C000001FC0000014
S11300601DC000001BC0000019C0000017C0000024
S113007015C0000013C0000011C000000FC0000034
S11300800DC000000BC0000009C0000011241FBEF9
S1130090CFEFD0E4DEBFCDBF2CD03DC0B1CF813097
S11300A059F07093C5006093C40088E18093C10047
S11300B08EE08093C20008957093CD006093CC00CD
S11300C088E18093C9008CE08093CA000895613070
S11300D041F0E0ECF0E0908195FFFDCF8093C60005
S11300E00895E8ECF0E0908195FFFDCF8093CE0079
S11300F0089511B88FEF82B984B915B863E370E03D
S113010080E0CDDFD1E0C0B1CD27C17060E08C2F9D
S10D0110DEDFC5B9F8CFF894FFCF85
S9030000FC
