:1000000045C000004BC0000049C0000047C00000D0
:1000100045C0000043C0000041C000003FC00000D8
:100020003DC000003BC0000039C0000037C00000E8
:1000300035C0000033C0000031C000002FC00000F8
:100040002DC000002BC0000029C0000027C0000008
:1000500025C0000023C0000021C000001FC0000018
:100060001DC000001BC0000019C0000017C0000028
:1000700015C0000013C0000011C000000FC0000038
:100080000DC000000BC0000009C0000011241FBEFD
:10009000CFEFD0E4DEBFCDBF3ED0F6C0B1CF8130D0
:1000A00059F07093C5006093C40088E18093C1004B
:1000B0008EE08093C20008957093CD006093CC00D1
:1000C00088E18093C9008CE08093CA000895613074
:1000D00041F0E0ECF0E0908195FFFDCF8093C60009
:1000E0000895E8ECF0E0908195FFFDCF8093CE007D
:1000F0000895813041F0E0ECF0E080818823ECF756
:100100008091C6000895E8ECF0E080818823ECF748
:100110008091CE000895CF93DF93CDB7DEB760977F
:100120000FB6F894DEBF0FBECDBF8FEF81B912B806
:1001300091E094B99EEF95B987B918B81AB88BB900
:1001400063E370E080E0ABDF63E370E081E0A7DFB2
:1001500052D080EE57D0882379F07BD081E882B9E5
:1001600000E00F2EF0ECCF2ED12CF02D0F2EF8EC5E
:10017000EF2EF12CF02D2BC081E274D06AD080EEEE
:1001800041D081E86FD065D080EE3CD08FEE6AD050
:1001900060D080EE37D080E065D082E090E09E8332
:1001A0008D838E010F5F1F4F7E0181E1E80EF11CF0
:1001B000F8018081D1800E5F1F4F54D08D2D52D019
:1001C0000E151F05A9F745D08FEF82B9C9CF13B11E
:1001D000F601908199231CF480E08BDF082FF70152
:1001E000908195FF06C0812F809561E08695817092
:1001F0006EDF05B9ECCF86E08093B9008CE0809388
:10020000B800089594EA9093BC00ECEBF0E0908184
:100210009923ECF79091B900987F983011F09031C4
:10022000A1F48093BB0084E88093BC00ECEBF0E089
:1002300080818823ECF79091B900987F983139F04C
:1002400081E0903429F480E0089581E0089580E011
:10025000089584E98093BC00ECEBF0E0808184FD9C
:10026000FDCF08958093BB0084E88093BC00ECEB45
:10027000F0E080818823ECF79091B900987F81E0CD
:0C028000983209F480E00895F894FFCF54
:00000001FF
